:1000000071C000008FC000008DC000008BC00000D8
:1000100089C0000087C0000085C0000083C00000C8
:1000200081C000007FC000007DC000007BC00000D8
:1000300079C0000077C0000075C0000073C00000E8
:1000400071C000006FC000006DC000006BC00000F8
:1000500069C0000067C0000065C0000063C0000008
:1000600061C00000E4C2000023C300005BC00000C8
:1000700059C0000057C0000055C0000053C0000028
:1000800051C000004FC000004DC000004BC0000038
:100090005AC3000099C3000045C0000043C00000DF
:1000A00041C000003FC000003DC000003BC0000058
:1000B00039C0000037C0000035C0000033C0000068
:1000C00031C000002FC000002DC00000C8C30000D8
:1000D00007C4000027C000004EC400008DC400000B
:1000E00021C0000011241FBECFEFD1E2DEBFCDBF83
:1000F00000E00CBF12E0A0E0B2E0E8E9F2E100E0CD
:100100000BBF02C007900D92A635B107D9F723E0C7
:10011000A6E5B2E001C01D92A037B207E1F72DD0ED
:100120000C944A096DCFCF93DF9300D01F92CDB7C7
:10013000DEB766D081E090E09A83898383E090E027
:100140009C838B83CE01019683D0019741F48CE38D
:1001500092E09F938F93DED50F900F9007C08AE3B4
:1001600092E09F938F93D6D50F900F900F900F90A2
:100170000F900F90DF91CF91089540E856E968E91C
:1001800070E080E01BD1789484E492E09F938F9399
:10019000C1D593D081E592E09F938F93BBD5C3DF08
:1001A0000F900F900F900F9080E090E0089592B123
:1001B00021E030E002C0220F331F8A95E2F720953C
:1001C000292322B92FE78AE196E021508040904010
:1001D000E1F700C00000089592B121E030E002C0D4
:1001E000220F331F8A95E2F7292B22B92FE78AE1E4
:1001F00096E0215080409040E1F700C00000089553
:100200008FEF82B92FEB87E299E021508040904038
:10021000E1F700C00000089512B82FEB87E299E0E3
:10022000215080409040E1F700C000000895CF9336
:10023000DF93F2DFC7E0D0E0CE01CEDF2197E1F718
:10024000DFDFEADFDDDFE8DFDBDFDF91CF9108957D
:10025000EF92FF920F931F93CF93DF93FC012081C6
:1002600031812F5F3F4F22303105F4F07C018C014A
:100270000E5F1F4FC1E0D0E026D0F80121913191EF
:100280008F018217930721F0D2DF80E090E00EC04B
:100290002196F701208131812F5F3F4FC217D3078D
:1002A0005CF381E090E002C081E090E0DF91CF91CB
:1002B0001F910F91FF90EF9008958FEF81B912B8C1
:1002C00014B815B80895189912C080E090E06FDF57
:1002D00080E090E081DF80E090E0089581E090E0B0
:1002E00066DF81E090E078DF81E090E00895199981
:1002F0000AC0F4CF82E090E05ADF82E090E06CDF49
:1003000082E090E008951A990AC0F4CF83E090E06B
:100310004EDF83E090E060DF83E090E008951B997A
:100320000AC0F4CF84E090E042DF84E090E054DF44
:1003300084E090E008951C990AC0F4CF85E090E035
:1003400036DF85E090E048DF85E090E008951D9974
:100350000AC0F4CF86E090E02ADF86E090E03CDF40
:1003600086E090E008951E990AC0F4CF87E090E0FF
:100370001EDF87E090E030DF87E090E008951F996E
:10038000A2CFF4CFCF93DF931F92CDB7DEB7BE01DC
:100390006F5F7F4F89ED92E066D08111F8CF898140
:1003A00090E00F90DF91CF910895682F80915C03CA
:1003B00090915D0324D180E090E008954F925F9288
:1003C0006F927F928F929F92AF92CF92EF920F9304
:1003D0001F93CF93C82F2A013B0189ED92E03AD0B9
:1003E00086E592E037D01F921F9286E592E09F93B8
:1003F0008F930F2EF9ED8F2EF2E09F2EF02DA12C72
:10040000C12C0F2EF3E0EF2EF02D00E011EE20E0D6
:1004100030E0B301A2018C2F70D090935D038093E4
:100420005C03EAE6F3E086E092E0918380839383C5
:1004300082830F900F900F900F90CF911F910F918B
:10044000EF90CF90AF909F908F907F906F905F9044
:100450004F900895FC01E058FF4F108231961082B2
:10046000319610820895FC01EE57FF4F2081222320
:10047000F9F031972081DC01A20FB11D2C91DB0135
:100480002C93208130E02F5F3F4F2F77307833233C
:1004900034F42150310920683F6F2F5F3F4F208394
:1004A000FC01EE57FF4F80818150808380E00895EA
:1004B00081E00895FC01EE57FF4F40814423DCF0BA
:1004C0003297208130E0DC01A20FB31F6C932F5FC5
:1004D0003F4F2F773078332334F42150310920688F
:1004E0003F6F2F5F3F4F2083FC01EE57FF4F4F5F61
:1004F000408380E0089582E008954F925F926F926A
:100500007F928F929F92DF92EF92FF920F931F93B1
:10051000CF93DF9300D01F92CDB7DEB7D82E49839B
:100520005A836B837C832801390188E090E0D1D223
:100530007C018D2D90E0880F991FFC01E25AFC4F41
:10054000F182E082FC01EC5EFD4F80819181D70158
:1005500011969C938E938D899E8913969C938E936E
:10056000129715969C928E9214978F89988D179654
:100570009C938E931697DFB6F894ED91FC911197AA
:1005800036978081826080838D909C90D301C201D8
:10059000880F991FAA1FBB1F880F991FAA1FBB1F77
:1005A0009C01AD01220F331F441F551F69817A81C1
:1005B0008B819C816CD22150F40132972083D7012A
:1005C000ED91FC911197359788E98083ED91FC912D
:1005D000349786E08083DFBEC7010F900F900F90A5
:1005E0000F90DF91CF911F910F91FF90EF90DF90CF
:1005F0009F908F907F906F905F904F900895CF93D2
:10060000DF93FC0182819381009759F0EF0152DF63
:10061000811109C0E881F9813597908190629083BA
:1006200003C082E001C082E0DF91CF9108951F9264
:100630000F920FB60F9211240BB60F922F933F9388
:100640004F935F936F937F938F939F93AF93BF93DA
:10065000CF93EF93FF93E0915E03F0915F033097A8
:1006600099F0C091C6006C2F8481958123DF809121
:100670005E0390915F03DC011696ED91FC91179754
:10068000309711F06C2F1995FF91EF91CF91BF9199
:10069000AF919F918F917F916F915F914F913F911A
:1006A0002F910F900BBE0F900FBE0F901F901895BB
:1006B0001F920F920FB60F9211240BB60F922F9329
:1006C0003F934F935F936F937F938F939F93AF93DA
:1006D000BF93EF93FF93CF93DF931F92CDB7DEB716
:1006E000E0915E03F0915F03309791F0BE016F5F80
:1006F0007F4F82819381B7DE811104C0898180930D
:10070000C6000BC0E1ECF0E080818F7D808305C0E6
:10071000E1ECF0E080818F7D80830F90DF91CF91BD
:10072000FF91EF91BF91AF919F918F917F916F91C9
:100730005F914F913F912F910F900BBE0F900FBE85
:100740000F901F9018951F920F920FB60F921124C1
:100750000BB60F922F933F934F935F936F937F93BB
:100760008F939F93AF93BF93CF93EF93FF93E091BA
:100770006003F0916103309799F0C091CE006C2F27
:100780008481958197DE8091600390916103DC0103
:100790001696ED91FC911797309711F06C2F1995E3
:1007A000FF91EF91CF91BF91AF919F918F917F91E9
:1007B0006F915F914F913F912F910F900BBE0F90D2
:1007C0000FBE0F901F9018951F920F920FB60F92A9
:1007D00011240BB60F922F933F934F935F936F9318
:1007E0007F938F939F93AF93BF93EF93FF93CF9399
:1007F000DF931F92CDB7DEB7E0916003F091610304
:10080000309791F0BE016F5F7F4F828193812BDE25
:10081000811104C089818093CE000BC0E9ECF0E027
:1008200080818F7D808305C0E9ECF0E080818F7D41
:1008300080830F90DF91CF91FF91EF91BF91AF91A6
:100840009F918F917F916F915F914F913F912F91E8
:100850000F900BBE0F900FBE0F901F9018951F9218
:100860000F920FB60F9211240BB60F922F933F9356
:100870004F935F936F937F938F939F93AF93BF93A8
:10088000CF93EF93FF93E0916203F091630330976E
:1008900099F0C091D6006C2F848195810BDE8091F8
:1008A000620390916303DC011696ED91FC9117971A
:1008B000309711F06C2F1995FF91EF91CF91BF9167
:1008C000AF919F918F917F916F915F914F913F91E8
:1008D0002F910F900BBE0F900FBE0F901F90189589
:1008E0001F920F920FB60F9211240BB60F922F93F7
:1008F0003F934F935F936F937F938F939F93AF93A8
:10090000BF93EF93FF93CF93DF931F92CDB7DEB7E3
:10091000E0916203F0916303309791F0BE016F5F45
:100920007F4F828193819FDD811104C089818093F3
:10093000D6000BC0E1EDF0E080818F7D808305C0A3
:10094000E1EDF0E080818F7D80830F90DF91CF918A
:10095000FF91EF91BF91AF919F918F917F916F9197
:100960005F914F913F912F910F900BBE0F900FBE53
:100970000F901F9018951F920F920FB60F9211248F
:100980000BB60F922F933F934F935F936F937F9389
:100990008F939F93AF93BF93CF93EF93FF93E09188
:1009A0006403F0916503309799F0C09136016C2F84
:1009B000848195817FDD8091640390916503DC01E2
:1009C0001696ED91FC911797309711F06C2F1995B1
:1009D000FF91EF91CF91BF91AF919F918F917F91B7
:1009E0006F915F914F913F912F910F900BBE0F90A0
:1009F0000FBE0F901F9018951F920F920FB60F9277
:100A000011240BB60F922F933F934F935F936F93E5
:100A10007F938F939F93AF93BF93EF93FF93CF9366
:100A2000DF931F92CDB7DEB7E0916403F0916503C9
:100A3000309791F0BE016F5F7F4F8281938113DD0C
:100A4000811104C08981809336010BC0E1E3F1E09C
:100A500080818F7D808305C0E1E3F1E080818F7D1F
:100A600080830F90DF91CF91FF91EF91BF91AF9174
:100A70009F918F917F916F915F914F913F912F91B6
:100A80000F900BBE0F900FBE0F901F901895A1E214
:100A90001A2EAA1BBB1BFD010DC0AA1FBB1FEE1FF8
:100AA000FF1FA217B307E407F50720F0A21BB30B43
:100AB000E40BF50B661F771F881F991F1A9469F7BF
:100AC00060957095809590959B01AC01BD01CF011B
:100AD00008950F931F93CF93DF938230910510F405
:100AE00082E090E0E0916803F091690320E030E05B
:100AF000A0E0B0E0309719F140815181028113816B
:100B000048175907C8F08417950769F4109731F012
:100B100012960C93129713961C9327C000936803A8
:100B20001093690322C02115310519F042175307AC
:100B300018F49A01BD01EF01DF01F801DBCF2115A7
:100B40003105F9F0281B390B2430310580F48A81F6
:100B50009B816115710521F0FB019383828304C0A1
:100B60009093690380936803FE01329644C0FE01AE
:100B7000E20FF31F81939193225031093983288327
:100B80003AC02091660330916703232B41F42091F2
:100B90000202309103023093670320936603209191
:100BA0000002309101022115310541F42DB73EB705
:100BB0004091040250910502241B350BE09166031D
:100BC000F0916703E217F307A0F42E1B3F0B2817E1
:100BD000390778F0AC014E5F5F4F2417350748F0B6
:100BE0004E0F5F1F50936703409366038193919369
:100BF00002C0E0E0F0E0CF01DF91CF911F910F91B3
:100C00000895CF93DF93009709F481C0FC013297D8
:100C100013821282A0916803B0916903109781F446
:100C200020813181820F931F2091660330916703E9
:100C30002817390751F5F0936703E093660367C0FF
:100C4000ED0120E030E0CE17DF0740F44A815B8100
:100C50009E0141155105F1F0EA01F5CFD383C2831E
:100C600040815181840F951FC817D90759F4888195
:100C70009981840F951F0296918380838A819B813D
:100C8000938382832115310529F4F0936903E0935E
:100C900068033DC0E901FB83EA8349915991C40F80
:100CA000D51FEC17FD0761F480819181840F951F9A
:100CB0000296E90199838883828193819B838A8349
:100CC000E0E0F0E012968D919C911397009719F057
:100CD000FD01DC01F7CF8D919C9111979D012E5F55
:100CE0003F4F820F931F20916603309167032817AF
:100CF000390769F4309729F4109269031092680358
:100D000002C013821282B0936703A0936603DF913F
:100D1000CF910895CF93DF93CDB7DEB7AE014A5F91
:100D20005F4FFA0161917191AF0180916C039091D5
:100D30006D0303D0DF91CF9108952F923F924F9290
:100D40005F926F927F928F929F92AF92BF92CF925B
:100D5000DF92EF92FF920F931F93CF93DF93CDB764
:100D6000DEB72B970FB6F894DEBF0FBECDBF6C0178
:100D70007B018A01FC0117821682838181FFBFC13A
:100D8000CE0101963C01F6019381F70193FD859117
:100D900093FF81917F01882309F4ADC1853239F435
:100DA00093FD859193FF81917F01853221F4B601F6
:100DB00090E0D6D1E8CF912C212C312CFFE1F31516
:100DC000D8F08B3279F038F4803279F08332A1F4A4
:100DD000232D20611DC08D3261F0803369F4232DF5
:100DE000216016C0832D8260382EE32DE4603E2EF4
:100DF0002AC0F32DF8601DC037FC2DC020ED280F50
:100E00002A3040F08E32B9F436FC75C1232D2064AF
:100E1000322E19C036FE06C08AE0989E200D11249D
:100E2000922E11C0EAE02E9E200D1124222EF32DC9
:100E3000F0623F2E08C08C3621F4832D8068382E56
:100E400002C0883641F4F70193FD859193FF8191AB
:100E50007F018111B3CF982F9F7D9554933028F453
:100E60000C5F1F4F9FE399830DC0833631F08337AA
:100E700071F0833509F055C020C0F8018081898365
:100E80000E5F1F4F88248394912C530112C02801B8
:100E9000F2E04F0E511CF801A080B18036FE03C075
:100EA000692D70E002C06FEF7FEFC5014ED14C019C
:100EB0008201F32DFF773F2E15C0280122E0420E5C
:100EC000511CF801A080B18036FE03C0692D70E08E
:100ED00002C06FEF7FEFC5012DD14C01F32DF068FB
:100EE0003F2E820133FC19C0822D90E088169906AE
:100EF000A0F4B60180E290E033D12A94F5CFF50159
:100F000037FC859137FE81915F01B60190E028D1D1
:100F100021102A9421E0821A91088114910479F712
:100F2000E1C0843611F0893639F5F80137FE07C083
:100F300060817181828193810C5F1F4F08C0608145
:100F40007181072E000C880B990B0E5F1F4FF32D3C
:100F5000FF763F2E97FF09C090958095709561951B
:100F60007F4F8F4F9F4FF0683F2E2AE030E0A30164
:100F700033D1882E861844C0853731F4232D2F7E37
:100F8000B22E2AE030E025C0932D997FB92E8F36FE
:100F9000C1F018F4883579F0AEC0803719F0883781
:100FA00021F0A9C0E92FE061BE2EB4FE0DC0FB2DDB
:100FB000F460BF2E09C034FE0AC0292F2660B22E6D
:100FC00006C028E030E005C020E130E002C020E1AA
:100FD00032E0F801B7FE07C06081718182819381A0
:100FE0000C5F1F4F06C06081718180E090E00E5F52
:100FF0001F4FA301F1D0882E8618FB2DFF773F2EBF
:1010000036FE0DC0232D2E7FA22E891458F434FEF7
:101010000BC032FC09C0832D8E7EA82E05C0B82CD3
:10102000A32C03C0B82C01C0B92CA4FE0FC0FE0134
:10103000E80DF11D8081803321F49A2D997EA92E2F
:1010400009C0A2FE06C0B394B39404C08A2D86786A
:1010500009F0B394A3FC10C0A0FE06C0B21480F443
:10106000280C922C9B180DC0B21458F4B60180E2E3
:1010700090E076D0B394F8CFB21418F42B1802C0D5
:10108000982C212CA4FE0FC0B60180E390E068D01C
:10109000A2FE16C0A1FC03C088E790E002C088E56C
:1010A00090E0B6010CC08A2D867851F0A1FE02C0F6
:1010B0008BE201C080E2A7FC8DE2B60190E050D047
:1010C000891430F4B60180E390E04AD09A94F8CFC6
:1010D0008A94F301E80DF11D8081B60190E040D0C3
:1010E0008110F6CF222009F44ECEB60180E290E0C6
:1010F00037D02A94F7CFF6018681978102C08FEF0F
:101100009FEF2B960FB6F894DEBF0FBECDBFDF91D9
:10111000CF911F910F91FF90EF90DF90CF90BF90F4
:10112000AF909F908F907F906F905F904F903F9087
:101130002F900895FC010590615070400110D8F780
:10114000809590958E0F9F1F0895FC01615070400F
:1011500001900110D8F7809590958E0F9F1F0895EC
:101160000F931F93CF93DF93FB01238121FD03C0D6
:101170008FEF9FEF2CC022FF16C04681578124813C
:1011800035814217530744F4A081B1819D012F5F3F
:101190003F4F318320838C93268137812F5F3F4FD0
:1011A0003783268314C08B01EC01FB010084F18599
:1011B000E02D1995892BE1F6D80116968D919C9119
:1011C0001797019617969C938E931697CE01DF91F1
:1011D000CF911F910F910895FA01AA27283051F15C
:1011E000203181F1E8946F936E7F6E5F7F4F8F4F58
:1011F0009F4FAF4FB1E03ED0B4E03CD0670F781FB7
:10120000891F9A1FA11D680F791F8A1F911DA11D9B
:101210006A0F711D811D911DA11D20D009F46894D4
:101220003F912AE0269F11243019305D3193DEF67C
:10123000CF010895462F4770405D4193B3E00FD032
:10124000C9F7F6CF462F4F70405D4A3318F0495D1D
:1012500031FD4052419302D0A9F7EACFB4E0A69500
:101260009795879577956795BA95C9F70097610522
:10127000710508959B01AC010A2E06945795479578
:1012800037952795BA95C9F7620F731F841F951F6D
:08129000A01D0895F894FFCFA2
:101298000000700320000000000300000000D501DA
:1012A800C2010000C600CE00D60036017472756512
:1012B8000066616C736500627574746F6E20776187
:1012C80073207072657373656400696E636F727200
:1012D8006563740048656C6C6F20776F726C64216D
:0612E800002020200000A0
:00000001FF
